:03000000020040BB
:03000B000200866A
:10004000758901758CB1758AE07B32753105753221
:100050000575330A75340975350575360A75370324
:10006000753802D2A9D2AFD28C780879317A00E7FC
:100070009000DE93F580EA9000E993F590090A126A
:1000800000D5D8EB0169DB467B320531E531B40A96
:100090003D7531000532E532B40633753200053462
:1000A000E534B40A297534000535E535B4061F7505
:1000B00035000537E537B4040BE538B4020675376B
:1000C00000753800B40A077537000538E538758CB7
:1000D000B1758AE0327D047EFFDEFEDDFA223F0646
:1000E0005B4F666D7D077F6F40FEFDFBF7EFDFBF67
:0100F0007F90
:00000001FF
